:020000040000FA
:040000002AEF00F0F3
:100008004C82D9CF43F0DACF44F00E0136BBFEEC78
:1000180001F00E0133AB0AD0339B630E426EC00E63
:10002800416ED6EC02F04B2A374A382A0E0138A125
:1000380007D03891630E426EC00E416ED1EC02F0CB
:1000480044C0DAFF43C0D9FF4C92110057EF02F0C9
:10005800456E43D0F28E1200F28C0E01339B298B31
:100068001200F28C0E0138912E811200F28C0E01D2
:1000780038952E851200F28C0E0138992E891200BF
:10008800F28C0E01389D2E8D1200F28C0E013893E1
:100098002E831200F28C0E0138972E871200F28CF4
:1000A8000E01389B2E8B1200F28C0E01389F2E8F7A
:1000B8001200F28C0E012C8B1200F28C0E012C8F88
:1000C8001200F28C0E012D831200F28C0E012D8786
:1000D8001200F28C0E012D8B12004550000AD8B484
:1000E800B9D7010AD8B4B8D7030AD8B4BAD7010A1D
:1000F800D8B4CBD7070AD8B4B9D7010AD8B4CAD765
:10010800030AD8B4B8D7010AD8B4C9D70F0AD8B4E3
:10011800B7D7010AD8B4C8D7030AD8B4CAD7010ACE
:10012800D8B4CBD7070AD8B4CCD7010AD8B4CDD71E
:10013800030AD8A41200CDD73F50D8B468D0000E17
:100148004B6E5BD00EC001F0010E3E6E0D0E3C6E84
:10015800010E1BD00E0E3E24D96EDA6A000EDA228A
:10016800010E3E24E16EE26A000EE222DFCFE7FFD5
:10017800010E3E24D96EDA6A000EDA22DF503C26E0
:100188003E2A0B0E3E6443D0020E3D6E40D00E0E4A
:100198003E24D96EDA6A000EDA22010E3E24E16EA0
:1001A800E26A000EE222DFCFE7FF000E406E000E8B
:1001B8003F6E000E3D6E010E3E24D96EDA6A000EC7
:1001C800DA223C50DE18D8A415D04850FF0A07148C
:1001D800396E4950FF0A08143A6E07C048F008C043
:1001E80049F0000E386E000E376E000E4A6EAAEC0B
:1001F80002F00DD0E0EC02F00AD03D50000AD8B46D
:10020800A1D7010AD8B4A6D7030AD8B4C0D70A0E12
:100218004B6402D0E0EC02F09FEC02F01200000EFA
:10022800796E000E7A6E000E7B6E500E7C6E000E9C
:100238007D6E000E7E6E000E7F6E000E806EC00E0C
:10024800816E8268BE0E836EA80E846E000E856E67
:100258008668BC0E876EF00E886E000E0E01926FD7
:10026800000E9A6F000EA76F000EAF6F000EB46FEE
:10027800000EBC6F000E916F000E996F000EA16FFB
:10028800000EA66F000EAE6F000EB36F000EBB6FB0
:10029800000EC06F000E906F000E986F000EA06FDA
:1002A800000EA56F000EAD6F000EB26F000EBA6F94
:1002B800000EBF6F1A0E626F1A51C00B11091A6F28
:1002C8001951C00B1609196F190E686F1C0E5A6F59
:1002D8001B0E5B6F1D51C00B08091D6F1C51C00B15
:1002E80009091C6F0F51C00B1B090F6F0C0E6E6FA5
:1002F8001151C00B1D09116F0E0E706F1200456E63
:100308002AD07D967D987D9A7D9C7D9E12007D9653
:100318007D987D9A7D9C7D8E12007D967D987D9A34
:100328007D8C7D8E12007D967D987D8A7D8C7D8E5C
:1003380012007D967D887D8A7D8C7D8E12007D865B
:100348007D887D8A7D8C7D8E12007D967D987D9A34
:100358007D9C7D9E12004550000AD8B4D2D7010A70
:10036800D8B4D5D7030AD8B4D8D7010AD8B4DBD7BC
:10037800070AD8B4DED7010AD8B4E1D7E6D7E10E28
:1003880046184510D8A404D0010E9B6E150E29D02E
:100398004B0E46184510D8A404D0030E9B6E400E91
:1003A80020D0800E451808E1250E4618D8A404D0A0
:1003B800060E9B6E820E15D0600E451808E1090ED8
:1003C8004618D8A404D01A0E9B6E0A0E0AD0B00E96
:1003D800451808E1040E4618D8A404D0340E9B6EC4
:1003E800140E9A6E240E9D6E900E9C6E475008094E
:1003F8009E6E12003F50D8A434D00E0E4024D96E01
:10040800DA6A000EDA22DBEC02F0DF6E4004D8A4D0
:100418000DD00E0E4024D96EDA6A000EDA220D0EC7
:10042800DE18D8A403D0010E406E12004050D8A4A4
:1004380004D00D0E0E18D8A40AD04004D8A40AD0AF
:100448000F50D8B407D0CB0E0F18D8B403D0000E75
:10045800406E1200402A0C0E40641200010E3F6EDE
:100468001200DBEC02F01200430E466E100E456ED1
:10047800C1EC02F0630E466EC00E456EC7EC02F08A
:10048800E10E466E000E456E000E476EC3EC01F09D
:100498009D9A0A0E2CEC00F0010E2CEC00F0000ED8
:1004A8002CEC00F01200C60EF66E050EF76E000E6C
:1004B800F86E00EE48F010EE04F00900F5CFEEFFFC
:1004C800E550E150FAE100EE01F0400EEE6AE80670
:1004D800FDE14C904C92000172EF02F013EC01F038
:1004E8008AEC02F038EC02F0010E466E200E456EE2
:1004F800B3EC02F0630E466EC00E456ECCEC02F013
:10050800020E2CEC00F0A0EC00F0FDD7000E466EB9
:10051800010E456EBBEC02F0798679847982798088
:1005280080828080798A79887F8C7F827F807D80B5
:100538007D827D8412007C80680E456EE40EE82E74
:10054800FED7452EFCD700D07C9012007C9080848A
:100558000250D8A41200045083EC01F01200000EDF
:10056800D06E4650D26E45500309CF6E12004650E9
:10057800946E45502009956E12004650D66E45502F
:100588008009D56E12004650D46E45C0D3FF1200C4
:100598004650CE6E45C0CDFF12004250CE6E41C0CF
:1005A800CDFF12004250D46E41C0D3FF12000E019D
:1005B80036ABFDD79850120080947C801200FFFF64
:0205C8000164CC
:020000040020DA
:10000000FF0FFF0FFF0FFF0FFF0FFF0FFF0FFF0F80
:020000040030CA
:0C000000AADF7DF79FFFFFDFFFFFFFFF7F
:00000001FF
